{
  "contractName": "Mung",
  "abi": [
    {
      "inputs": [
        {
          "internalType": "string",
          "name": "_text",
          "type": "string"
        }
      ],
      "stateMutability": "nonpayable",
      "type": "constructor"
    },
    {
      "inputs": [],
      "name": "text",
      "outputs": [
        {
          "internalType": "string",
          "name": "",
          "type": "string"
        }
      ],
      "stateMutability": "view",
      "type": "function"
    },
    {
      "inputs": [
        {
          "internalType": "string",
          "name": "_text",
          "type": "string"
        }
      ],
      "name": "setText",
      "outputs": [],
      "stateMutability": "nonpayable",
      "type": "function"
    },
    {
      "inputs": [],
      "name": "say",
      "outputs": [
        {
          "internalType": "string",
          "name": "",
          "type": "string"
        }
      ],
      "stateMutability": "view",
      "type": "function"
    },
    {
      "inputs": [
        {
          "internalType": "uint256",
          "name": "a",
          "type": "uint256"
        }
      ],
      "name": "errorOccur",
      "outputs": [
        {
          "internalType": "uint256",
          "name": "",
          "type": "uint256"
        }
      ],
      "stateMutability": "pure",
      "type": "function"
    }
  ],
  "bytecode": "0x60806040523480156200001157600080fd5b5060405162000a4938038062000a498339818101604052810190620000379190620002a4565b80600090805190602001906200004f92919062000057565b50506200035a565b828054620000659062000324565b90600052602060002090601f016020900481019282620000895760008555620000d5565b82601f10620000a457805160ff1916838001178555620000d5565b82800160010185558215620000d5579182015b82811115620000d4578251825591602001919060010190620000b7565b5b509050620000e49190620000e8565b5090565b5b8082111562000103576000816000905550600101620000e9565b5090565b6000604051905090565b600080fd5b600080fd5b600080fd5b600080fd5b6000601f19601f8301169050919050565b7f4e487b7100000000000000000000000000000000000000000000000000000000600052604160045260246000fd5b620001708262000125565b810181811067ffffffffffffffff8211171562000192576200019162000136565b5b80604052505050565b6000620001a762000107565b9050620001b5828262000165565b919050565b600067ffffffffffffffff821115620001d857620001d762000136565b5b620001e38262000125565b9050602081019050919050565b60005b8381101562000210578082015181840152602081019050620001f3565b8381111562000220576000848401525b50505050565b60006200023d6200023784620001ba565b6200019b565b9050828152602081018484840111156200025c576200025b62000120565b5b62000269848285620001f0565b509392505050565b600082601f8301126200028957620002886200011b565b5b81516200029b84826020860162000226565b91505092915050565b600060208284031215620002bd57620002bc62000111565b5b600082015167ffffffffffffffff811115620002de57620002dd62000116565b5b620002ec8482850162000271565b91505092915050565b7f4e487b7100000000000000000000000000000000000000000000000000000000600052602260045260246000fd5b600060028204905060018216806200033d57607f821691505b60208210811415620003545762000353620002f5565b5b50919050565b6106df806200036a6000396000f3fe608060405234801561001057600080fd5b506004361061004c5760003560e01c80631f1bd692146100515780632404129d1461006f5780635d3a1f9d1461009f578063954ab4b2146100bb575b600080fd5b6100596100d9565b604051610066919061039b565b60405180910390f35b61008960048036038101906100849190610407565b610167565b6040516100969190610443565b60405180910390f35b6100b960048036038101906100b49190610593565b6101b3565b005b6100c36101cd565b6040516100d0919061039b565b60405180910390f35b600080546100e69061060b565b80601f01602080910402602001604051908101604052809291908181526020018280546101129061060b565b801561015f5780601f106101345761010080835404028352916020019161015f565b820191906000526020600020905b81548152906001019060200180831161014257829003601f168201915b505050505081565b60008082146101ab576040517f08c379a00000000000000000000000000000000000000000000000000000000081526004016101a290610689565b60405180910390fd5b819050919050565b80600090805190602001906101c992919061025f565b5050565b6060600080546101dc9061060b565b80601f01602080910402602001604051908101604052809291908181526020018280546102089061060b565b80156102555780601f1061022a57610100808354040283529160200191610255565b820191906000526020600020905b81548152906001019060200180831161023857829003601f168201915b5050505050905090565b82805461026b9061060b565b90600052602060002090601f01602090048101928261028d57600085556102d4565b82601f106102a657805160ff19168380011785556102d4565b828001600101855582156102d4579182015b828111156102d35782518255916020019190600101906102b8565b5b5090506102e191906102e5565b5090565b5b808211156102fe5760008160009055506001016102e6565b5090565b600081519050919050565b600082825260208201905092915050565b60005b8381101561033c578082015181840152602081019050610321565b8381111561034b576000848401525b50505050565b6000601f19601f8301169050919050565b600061036d82610302565b610377818561030d565b935061038781856020860161031e565b61039081610351565b840191505092915050565b600060208201905081810360008301526103b58184610362565b905092915050565b6000604051905090565b600080fd5b600080fd5b6000819050919050565b6103e4816103d1565b81146103ef57600080fd5b50565b600081359050610401816103db565b92915050565b60006020828403121561041d5761041c6103c7565b5b600061042b848285016103f2565b91505092915050565b61043d816103d1565b82525050565b60006020820190506104586000830184610434565b92915050565b600080fd5b600080fd5b7f4e487b7100000000000000000000000000000000000000000000000000000000600052604160045260246000fd5b6104a082610351565b810181811067ffffffffffffffff821117156104bf576104be610468565b5b80604052505050565b60006104d26103bd565b90506104de8282610497565b919050565b600067ffffffffffffffff8211156104fe576104fd610468565b5b61050782610351565b9050602081019050919050565b82818337600083830152505050565b6000610536610531846104e3565b6104c8565b90508281526020810184848401111561055257610551610463565b5b61055d848285610514565b509392505050565b600082601f83011261057a5761057961045e565b5b813561058a848260208601610523565b91505092915050565b6000602082840312156105a9576105a86103c7565b5b600082013567ffffffffffffffff8111156105c7576105c66103cc565b5b6105d384828501610565565b91505092915050565b7f4e487b7100000000000000000000000000000000000000000000000000000000600052602260045260246000fd5b6000600282049050600182168061062357607f821691505b60208210811415610637576106366105dc565b5b50919050565b7f68656c6c6f20776f726c64206572726f72000000000000000000000000000000600082015250565b600061067360118361030d565b915061067e8261063d565b602082019050919050565b600060208201905081810360008301526106a281610666565b905091905056fea26469706673582212203a8bcd567165d3d58abdbcbf2181228d946c03145d2132842fed430c0e1b6a2d64736f6c634300080a0033",
  "immutableReferences": {},
  "source": "// SPDX-License-Identifier: UNLICENSED\npragma solidity ^0.8.10;\n\ncontract Mung {\n\n  string public text;\n\n  constructor(string memory _text) {\n   text = _text;\n  }\n\n  function setText(string memory _text) public{\n   text = _text;\n  }\n\n  function say() public view returns(string memory){ \n    return text;\n  }\n\n  function errorOccur(uint a) public pure returns (uint) { \n    require(a == 0, \"hello world error\");\n    return a;\n  } \n}",
  "sourcePath": "/Users/jeongtaepark/Desktop/document/_///ERC20  NFT  ERC721//part 2/truffle-/contracts/Mung.sol",
  "compiler": {
    "name": "solc",
    "version": "0.8.10+commit.fc410830.Emscripten.clang"
  },
  "schemaVersion": "3.4.3",
  "updatedAt": "2022-05-22T00:58:55.320Z",
  "devdoc": {
    "kind": "dev",
    "methods": {},
    "version": 1
  },
  "userdoc": {
    "kind": "user",
    "methods": {},
    "version": 1
  }
}